{
  "contractName": "PokemonFactory",
  "abi": [
    {
      "anonymous": false,
      "inputs": [
        {
          "indexed": false,
          "internalType": "uint256",
          "name": "pokemonId",
          "type": "uint256"
        },
        {
          "indexed": false,
          "internalType": "string",
          "name": "name",
          "type": "string"
        },
        {
          "indexed": false,
          "internalType": "uint256",
          "name": "attack",
          "type": "uint256"
        },
        {
          "indexed": false,
          "internalType": "uint256",
          "name": "hp",
          "type": "uint256"
        },
        {
          "indexed": false,
          "internalType": "string",
          "name": "imgUrl",
          "type": "string"
        }
      ],
      "name": "NewPokemon",
      "type": "event"
    },
    {
      "constant": true,
      "inputs": [
        {
          "internalType": "uint256",
          "name": "",
          "type": "uint256"
        }
      ],
      "name": "pokemonToOwner",
      "outputs": [
        {
          "internalType": "address",
          "name": "",
          "type": "address"
        }
      ],
      "payable": false,
      "stateMutability": "view",
      "type": "function"
    },
    {
      "constant": true,
      "inputs": [
        {
          "internalType": "uint256",
          "name": "",
          "type": "uint256"
        }
      ],
      "name": "pokemons",
      "outputs": [
        {
          "internalType": "uint256",
          "name": "id",
          "type": "uint256"
        },
        {
          "internalType": "string",
          "name": "name",
          "type": "string"
        },
        {
          "internalType": "uint256",
          "name": "attack",
          "type": "uint256"
        },
        {
          "internalType": "uint256",
          "name": "hp",
          "type": "uint256"
        },
        {
          "internalType": "string",
          "name": "imgUrl",
          "type": "string"
        }
      ],
      "payable": false,
      "stateMutability": "view",
      "type": "function"
    },
    {
      "constant": false,
      "inputs": [
        {
          "internalType": "string",
          "name": "_name",
          "type": "string"
        },
        {
          "internalType": "uint256",
          "name": "_attack",
          "type": "uint256"
        },
        {
          "internalType": "uint256",
          "name": "_hp",
          "type": "uint256"
        },
        {
          "internalType": "string",
          "name": "_imgUrl",
          "type": "string"
        }
      ],
      "name": "_createPokemon",
      "outputs": [],
      "payable": false,
      "stateMutability": "nonpayable",
      "type": "function"
    },
    {
      "constant": true,
      "inputs": [
        {
          "internalType": "address",
          "name": "owner",
          "type": "address"
        }
      ],
      "name": "getPokemonByOwner",
      "outputs": [
        {
          "internalType": "uint256[]",
          "name": "",
          "type": "uint256[]"
        }
      ],
      "payable": false,
      "stateMutability": "view",
      "type": "function"
    },
    {
      "constant": false,
      "inputs": [
        {
          "internalType": "uint256",
          "name": "pokemonId",
          "type": "uint256"
        },
        {
          "internalType": "uint256",
          "name": "enemyId",
          "type": "uint256"
        }
      ],
      "name": "attackEnemy",
      "outputs": [],
      "payable": false,
      "stateMutability": "nonpayable",
      "type": "function"
    }
  ],
  "bytecode": "0x608060405234801561001057600080fd5b50610d10806100206000396000f3fe608060405234801561001057600080fd5b50600436106100575760003560e01c80632f7467b31461005c57806385831079146100ca57806385fa2b23146101f2578063b032265614610358578063e99e6011146103f1575b600080fd5b6100886004803603602081101561007257600080fd5b8101908080359060200190929190505050610429565b604051808273ffffffffffffffffffffffffffffffffffffffff1673ffffffffffffffffffffffffffffffffffffffff16815260200191505060405180910390f35b6100f6600480360360208110156100e057600080fd5b810190808035906020019092919050505061045c565b604051808681526020018060200185815260200184815260200180602001838103835287818151815260200191508051906020019080838360005b8381101561014c578082015181840152602081019050610131565b50505050905090810190601f1680156101795780820380516001836020036101000a031916815260200191505b50838103825284818151815260200191508051906020019080838360005b838110156101b2578082015181840152602081019050610197565b50505050905090810190601f1680156101df5780820380516001836020036101000a031916815260200191505b5097505050505050505060405180910390f35b6103566004803603608081101561020857600080fd5b810190808035906020019064010000000081111561022557600080fd5b82018360208201111561023757600080fd5b8035906020019184600183028401116401000000008311171561025957600080fd5b91908080601f016020809104026020016040519081016040528093929190818152602001838380828437600081840152601f19601f8201169050808301925050505050505091929192908035906020019092919080359060200190929190803590602001906401000000008111156102d057600080fd5b8201836020820111156102e257600080fd5b8035906020019184600183028401116401000000008311171561030457600080fd5b91908080601f016020809104026020016040519081016040528093929190818152602001838380828437600081840152601f19601f8201169050808301925050505050505091929192905050506105cf565b005b61039a6004803603602081101561036e57600080fd5b81019080803573ffffffffffffffffffffffffffffffffffffffff169060200190929190505050610850565b6040518080602001828103825283818151815260200191508051906020019060200280838360005b838110156103dd5780820151818401526020810190506103c2565b505050509050019250505060405180910390f35b6104276004803603604081101561040757600080fd5b81019080803590602001909291908035906020019092919050505061097d565b005b60016020528060005260406000206000915054906101000a900473ffffffffffffffffffffffffffffffffffffffff1681565b6000818154811061046957fe5b9060005260206000209060050201600091509050806000015490806001018054600181600116156101000203166002900480601f01602080910402602001604051908101604052809291908181526020018280546001816001161561010002031660029004801561051b5780601f106104f05761010080835404028352916020019161051b565b820191906000526020600020905b8154815290600101906020018083116104fe57829003601f168201915b505050505090806002015490806003015490806004018054600181600116156101000203166002900480601f0160208091040260200160405190810160405280929190818152602001828054600181600116156101000203166002900480156105c55780601f1061059a576101008083540402835291602001916105c5565b820191906000526020600020905b8154815290600101906020018083116105a857829003601f168201915b5050505050905085565b60008080549050905060006040518060a001604052808381526020018781526020018681526020018581526020018481525090806001815401808255809150509060018203906000526020600020906005020160009091929091909150600082015181600001556020820151816001019080519060200190610652929190610bee565b5060408201518160020155606082015181600301556080820151816004019080519060200190610683929190610bee565b50505050336001600083815260200190815260200160002060006101000a81548173ffffffffffffffffffffffffffffffffffffffff021916908373ffffffffffffffffffffffffffffffffffffffff160217905550600260003373ffffffffffffffffffffffffffffffffffffffff1673ffffffffffffffffffffffffffffffffffffffff168152602001908152602001600020600081548092919060010191905055507f256aa9216621c83023b4dee83e0f11f51f5c6f75fbbf9ab6209d0c89a137b1d98186868686604051808681526020018060200185815260200184815260200180602001838103835287818151815260200191508051906020019080838360005b838110156107a4578082015181840152602081019050610789565b50505050905090810190601f1680156107d15780820380516001836020036101000a031916815260200191505b50838103825284818151815260200191508051906020019080838360005b8381101561080a5780820151818401526020810190506107ef565b50505050905090810190601f1680156108375780820380516001836020036101000a031916815260200191505b5097505050505050505060405180910390a15050505050565b606080600260008473ffffffffffffffffffffffffffffffffffffffff1673ffffffffffffffffffffffffffffffffffffffff168152602001908152602001600020546040519080825280602002602001820160405280156108c15781602001602082028038833980820191505090505b509050600080905060008090505b600080549050811015610972578473ffffffffffffffffffffffffffffffffffffffff166001600083815260200190815260200160002060009054906101000a900473ffffffffffffffffffffffffffffffffffffffff1673ffffffffffffffffffffffffffffffffffffffff161415610965578083838151811061095057fe5b60200260200101818152505081806001019250505b80806001019150506108cf565b508192505050919050565b6001600083815260200190815260200160002060009054906101000a900473ffffffffffffffffffffffffffffffffffffffff1673ffffffffffffffffffffffffffffffffffffffff163373ffffffffffffffffffffffffffffffffffffffff16146109e857600080fd5b60008083815481106109f657fe5b906000526020600020906005020190506000808381548110610a1457fe5b90600052602060002090600502019050806002015482600201541115610ab457806002015482600201540382600301540382600301819055506005826002015401826002018190555060008381548110610a6a57fe5b9060005260206000209060050201600080820160009055600182016000610a919190610c6e565b60028201600090556003820160009055600482016000610ab19190610c6e565b50505b806002015482600201541415610b715760008381548110610ad157fe5b9060005260206000209060050201600080820160009055600182016000610af89190610c6e565b60028201600090556003820160009055600482016000610b189190610c6e565b505060008481548110610b2757fe5b9060005260206000209060050201600080820160009055600182016000610b4e9190610c6e565b60028201600090556003820160009055600482016000610b6e9190610c6e565b50505b806002015482600201541080610b8c57506000826003015411155b15610be85760008481548110610b9e57fe5b9060005260206000209060050201600080820160009055600182016000610bc59190610c6e565b60028201600090556003820160009055600482016000610be59190610c6e565b50505b50505050565b828054600181600116156101000203166002900490600052602060002090601f016020900481019282601f10610c2f57805160ff1916838001178555610c5d565b82800160010185558215610c5d579182015b82811115610c5c578251825591602001919060010190610c41565b5b509050610c6a9190610cb6565b5090565b50805460018160011615610100020316600290046000825580601f10610c945750610cb3565b601f016020900490600052602060002090810190610cb29190610cb6565b5b50565b610cd891905b80821115610cd4576000816000905550600101610cbc565b5090565b9056fea265627a7a723158207e35630b4bb3ba1fb4f09cca4c3f694eb849511acefff1f35294fed3fb4a195f64736f6c63430005100032",
  "source": "// SPDX-License-Identifier: MIT\r\npragma solidity >=0.4.21 <0.7.0;\r\n\r\ncontract PokemonFactory {\r\n\r\n    //Event Here :\r\n    event NewPokemon(uint pokemonId , string name ,uint attack , uint hp , string imgUrl);\r\n\r\n    struct Pokemon {\r\n        uint id ;\r\n        string name ;\r\n        uint attack ;\r\n        uint hp ;\r\n        string imgUrl;\r\n    }\r\n\r\n    Pokemon[] public pokemons ;\r\n\r\n    mapping (uint => address) public pokemonToOwner;\r\n    mapping (address => uint) ownerPokemonsCount;\r\n    \r\n\r\n    function _createPokemon( string memory _name, uint _attack, uint _hp ,  string memory _imgUrl) public {\r\n        uint id = pokemons.length;\r\n        pokemons.push(Pokemon( id, _name, _attack,_hp , _imgUrl));\r\n        pokemonToOwner[id] = msg.sender;\r\n        ownerPokemonsCount[msg.sender]++;\r\n        emit NewPokemon(id, _name, _attack,_hp ,  _imgUrl);\r\n    } \r\n    \r\n    function getPokemonByOwner(address owner) external view returns(uint[] memory) {\r\n    uint[] memory result = new uint[](ownerPokemonsCount[owner]);\r\n    uint counter = 0;\r\n    for (uint i = 0; i < pokemons.length; i++) {\r\n      if (pokemonToOwner[i] == owner) {\r\n        result[counter] = i;\r\n        counter++;\r\n      }\r\n    }\r\n    return result;\r\n  }\r\n\r\n\r\n    function attackEnemy(uint pokemonId, uint enemyId) public {\r\n    require(msg.sender == pokemonToOwner[pokemonId]);\r\n    Pokemon storage myPokemon = pokemons[pokemonId];\r\n    Pokemon storage enemyPokemon  = pokemons[enemyId];\r\n    if (myPokemon.attack > enemyPokemon.attack ){\r\n        myPokemon.hp  = myPokemon.hp - ( myPokemon.attack - enemyPokemon.attack) ;\r\n        myPokemon.attack = myPokemon.attack + 5 ;\r\n        delete pokemons[enemyId];\r\n\r\n    }\r\n    if (myPokemon.attack == enemyPokemon.attack ){\r\n        delete pokemons[enemyId];\r\n        delete pokemons[pokemonId];\r\n\r\n       \r\n    }\r\n    if (myPokemon.attack < enemyPokemon.attack || myPokemon.hp <=0 ){\r\n        delete pokemons[pokemonId];\r\n    }\r\n    // start here\r\n  }\r\n}\r\n",
  "sourcePath": "E:/ThangNQ/Spring2021/Solidity/PKM_PKM/PKM_BlockChain/contracts/PokemonFactory.sol",
  "compiler": {
    "name": "solc",
    "version": "0.5.16+commit.9c3226ce.Emscripten.clang"
  },
  "schemaVersion": "3.3.4",
  "updatedAt": "2021-03-04T10:11:33.018Z",
  "networkType": "ethereum",
  "devdoc": {
    "methods": {}
  },
  "userdoc": {
    "methods": {}
  }
}