{
  "contractName": "PokemonFeeding",
  "abi": [
    {
      "anonymous": false,
      "inputs": [
        {
          "indexed": false,
          "internalType": "uint256",
          "name": "pokemonId",
          "type": "uint256"
        },
        {
          "indexed": false,
          "internalType": "string",
          "name": "name",
          "type": "string"
        },
        {
          "indexed": false,
          "internalType": "uint256",
          "name": "attack",
          "type": "uint256"
        },
        {
          "indexed": false,
          "internalType": "uint256",
          "name": "hp",
          "type": "uint256"
        },
        {
          "indexed": false,
          "internalType": "string",
          "name": "imgUrl",
          "type": "string"
        }
      ],
      "name": "NewPokemon",
      "type": "event"
    },
    {
      "constant": false,
      "inputs": [
        {
          "internalType": "string",
          "name": "_name",
          "type": "string"
        },
        {
          "internalType": "uint256",
          "name": "_attack",
          "type": "uint256"
        },
        {
          "internalType": "uint256",
          "name": "_hp",
          "type": "uint256"
        },
        {
          "internalType": "string",
          "name": "_imgUrl",
          "type": "string"
        }
      ],
      "name": "_createPokemon",
      "outputs": [],
      "payable": false,
      "stateMutability": "nonpayable",
      "type": "function"
    },
    {
      "constant": true,
      "inputs": [
        {
          "internalType": "address",
          "name": "owner",
          "type": "address"
        }
      ],
      "name": "getPokemonByOwner",
      "outputs": [
        {
          "internalType": "uint256[]",
          "name": "",
          "type": "uint256[]"
        }
      ],
      "payable": false,
      "stateMutability": "view",
      "type": "function"
    },
    {
      "constant": true,
      "inputs": [
        {
          "internalType": "uint256",
          "name": "",
          "type": "uint256"
        }
      ],
      "name": "pokemonToOwner",
      "outputs": [
        {
          "internalType": "address",
          "name": "",
          "type": "address"
        }
      ],
      "payable": false,
      "stateMutability": "view",
      "type": "function"
    },
    {
      "constant": true,
      "inputs": [
        {
          "internalType": "uint256",
          "name": "",
          "type": "uint256"
        }
      ],
      "name": "pokemons",
      "outputs": [
        {
          "internalType": "string",
          "name": "name",
          "type": "string"
        },
        {
          "internalType": "uint256",
          "name": "attack",
          "type": "uint256"
        },
        {
          "internalType": "uint256",
          "name": "hp",
          "type": "uint256"
        },
        {
          "internalType": "string",
          "name": "imgUrl",
          "type": "string"
        }
      ],
      "payable": false,
      "stateMutability": "view",
      "type": "function"
    },
    {
      "constant": false,
      "inputs": [
        {
          "internalType": "uint256",
          "name": "pokemonId",
          "type": "uint256"
        },
        {
          "internalType": "uint256",
          "name": "enemyId",
          "type": "uint256"
        }
      ],
      "name": "attackEnemy",
      "outputs": [],
      "payable": false,
      "stateMutability": "nonpayable",
      "type": "function"
    }
  ],
  "bytecode": "0x608060405234801561001057600080fd5b50610be6806100206000396000f3fe608060405234801561001057600080fd5b50600436106100575760003560e01c80632f7467b31461005c57806385831079146100ca57806385fa2b23146101eb578063b032265614610351578063e99e6011146103ea575b600080fd5b6100886004803603602081101561007257600080fd5b8101908080359060200190929190505050610422565b604051808273ffffffffffffffffffffffffffffffffffffffff1673ffffffffffffffffffffffffffffffffffffffff16815260200191505060405180910390f35b6100f6600480360360208110156100e057600080fd5b8101908080359060200190929190505050610455565b604051808060200185815260200184815260200180602001838103835287818151815260200191508051906020019080838360005b8381101561014657808201518184015260208101905061012b565b50505050905090810190601f1680156101735780820380516001836020036101000a031916815260200191505b50838103825284818151815260200191508051906020019080838360005b838110156101ac578082015181840152602081019050610191565b50505050905090810190601f1680156101d95780820380516001836020036101000a031916815260200191505b50965050505050505060405180910390f35b61034f6004803603608081101561020157600080fd5b810190808035906020019064010000000081111561021e57600080fd5b82018360208201111561023057600080fd5b8035906020019184600183028401116401000000008311171561025257600080fd5b91908080601f016020809104026020016040519081016040528093929190818152602001838380828437600081840152601f19601f8201169050808301925050505050505091929192908035906020019092919080359060200190929190803590602001906401000000008111156102c957600080fd5b8201836020820111156102db57600080fd5b803590602001918460018302840111640100000000831117156102fd57600080fd5b91908080601f016020809104026020016040519081016040528093929190818152602001838380828437600081840152601f19601f8201169050808301925050505050505091929192905050506105c2565b005b6103936004803603602081101561036757600080fd5b81019080803573ffffffffffffffffffffffffffffffffffffffff169060200190929190505050610837565b6040518080602001828103825283818151815260200191508051906020019060200280838360005b838110156103d65780820151818401526020810190506103bb565b505050509050019250505060405180910390f35b6104206004803603604081101561040057600080fd5b810190808035906020019092919080359060200190929190505050610964565b005b60016020528060005260406000206000915054906101000a900473ffffffffffffffffffffffffffffffffffffffff1681565b6000818154811061046257fe5b9060005260206000209060040201600091509050806000018054600181600116156101000203166002900480601f01602080910402602001604051908101604052809291908181526020018280546001816001161561010002031660029004801561050e5780601f106104e35761010080835404028352916020019161050e565b820191906000526020600020905b8154815290600101906020018083116104f157829003601f168201915b505050505090806001015490806002015490806003018054600181600116156101000203166002900480601f0160208091040260200160405190810160405280929190818152602001828054600181600116156101000203166002900480156105b85780601f1061058d576101008083540402835291602001916105b8565b820191906000526020600020905b81548152906001019060200180831161059b57829003601f168201915b5050505050905084565b600060405180608001604052808681526020018581526020018481526020018381525090806001815401808255809150509060018203906000526020600020906004020160009091929091909150600082015181600001908051906020019061062c929190610ac4565b506020820151816001015560408201518160020155606082015181600301908051906020019061065d929190610ac4565b5050505060006001600080549050039050336001600083815260200190815260200160002060006101000a81548173ffffffffffffffffffffffffffffffffffffffff021916908373ffffffffffffffffffffffffffffffffffffffff160217905550600260003373ffffffffffffffffffffffffffffffffffffffff1673ffffffffffffffffffffffffffffffffffffffff168152602001908152602001600020600081548092919060010191905055507f256aa9216621c83023b4dee83e0f11f51f5c6f75fbbf9ab6209d0c89a137b1d98186868686604051808681526020018060200185815260200184815260200180602001838103835287818151815260200191508051906020019080838360005b8381101561078b578082015181840152602081019050610770565b50505050905090810190601f1680156107b85780820380516001836020036101000a031916815260200191505b50838103825284818151815260200191508051906020019080838360005b838110156107f15780820151818401526020810190506107d6565b50505050905090810190601f16801561081e5780820380516001836020036101000a031916815260200191505b5097505050505050505060405180910390a15050505050565b606080600260008473ffffffffffffffffffffffffffffffffffffffff1673ffffffffffffffffffffffffffffffffffffffff168152602001908152602001600020546040519080825280602002602001820160405280156108a85781602001602082028038833980820191505090505b509050600080905060008090505b600080549050811015610959578473ffffffffffffffffffffffffffffffffffffffff166001600083815260200190815260200160002060009054906101000a900473ffffffffffffffffffffffffffffffffffffffff1673ffffffffffffffffffffffffffffffffffffffff16141561094c578083838151811061093757fe5b60200260200101818152505081806001019250505b80806001019150506108b6565b508192505050919050565b6001600083815260200190815260200160002060009054906101000a900473ffffffffffffffffffffffffffffffffffffffff1673ffffffffffffffffffffffffffffffffffffffff163373ffffffffffffffffffffffffffffffffffffffff16146109cf57600080fd5b60008083815481106109dd57fe5b9060005260206000209060040201905060008083815481106109fb57fe5b90600052602060002090600402019050806001015482600101541115610a4f576002816001015483600101540381610a2f57fe5b048260020154038260020181905550600582600101540182600101819055505b806001015482600101541080610a6a57506000826002015411155b15610abe5760008481548110610a7c57fe5b906000526020600020906004020160008082016000610a9b9190610b44565b60018201600090556002820160009055600382016000610abb9190610b44565b50505b50505050565b828054600181600116156101000203166002900490600052602060002090601f016020900481019282601f10610b0557805160ff1916838001178555610b33565b82800160010185558215610b33579182015b82811115610b32578251825591602001919060010190610b17565b5b509050610b409190610b8c565b5090565b50805460018160011615610100020316600290046000825580601f10610b6a5750610b89565b601f016020900490600052602060002090810190610b889190610b8c565b5b50565b610bae91905b80821115610baa576000816000905550600101610b92565b5090565b9056fea265627a7a72315820a6fd3335f25dbce6ed02d71f53622738e4d12075bf9957ff096a078e60c6f1af64736f6c63430005100032",
  "source": "// SPDX-License-Identifier: MIT\r\npragma solidity >=0.4.21 <0.7.0;\r\n\r\nimport \"./PokemonFactory.sol\";\r\n\r\n\r\ncontract PokemonFeeding is PokemonFactory {\r\n\r\n    \r\n  function attackEnemy(uint pokemonId, uint enemyId) public {\r\n    require(msg.sender == pokemonToOwner[pokemonId]);\r\n    Pokemon storage myPokemon = pokemons[pokemonId];\r\n    Pokemon storage enemyPokemon  = pokemons[enemyId];\r\n    if (myPokemon.attack > enemyPokemon.attack ){\r\n        myPokemon.hp     = myPokemon.hp - ( myPokemon.attack - enemyPokemon.attack)/2 ;\r\n        myPokemon.attack = myPokemon.attack + 5 ;\r\n    }\r\n    if (myPokemon.attack < enemyPokemon.attack || myPokemon.hp <=0 ){\r\n        delete pokemons[pokemonId];\r\n    }\r\n    // start here\r\n  }\r\n   \r\n}",
  "sourcePath": "E:/ThangNQ/Spring2021/Solidity/PKM_PKM/PKM_BlockChain/contracts/PokemonFeeding.sol",
  "compiler": {
    "name": "solc",
    "version": "0.5.16+commit.9c3226ce.Emscripten.clang"
  },
  "schemaVersion": "3.3.4",
  "updatedAt": "2021-03-04T07:43:37.375Z",
  "networkType": "ethereum",
  "devdoc": {
    "methods": {}
  },
  "userdoc": {
    "methods": {}
  }
}